:030000000209B939
:0C09B900787FE4F6D8FD758174020A0016
:100E530080828486888A8C81838587898B8D3F06EF
:100E63005B4F666D7D077F6FBF86DBCFE6EDFD874A
:050E7300FFEF40011F2C
:100DC400073C0800010C01060D014400C100014E5E
:100DD4000001430005460000000000C101013A0083
:100DE400014F00024C0000014B00013000013B00A8
:060DF40001740001310052
:0F0EEE00EF7F08A2E092B4D2B6C2B6C313DFF40E
:010EFD0022D2
:0F0EFE007F08C313A2B492E7D2B6C2B6DFF4FFE7
:010F0D0022C1
:100EB200C2B5C2B6D2B5EF4401FF120EEE120EFE5B
:040EC200D2B6C2B52D
:010EC6002209
:1007D9007F80120EB2EF5470C4540F75F00AA4FE54
:1007E900EF540F2E1202E47F82120EB2EF5470C43E
:1007F900540F75F00AA4FEEF540F2E900001120257
:10080900F67F84120EB2EF5470C4540F75F00AA427
:10081900FEEF540F2E9000021202F67F86120EB2DE
:10082900EF5470C4540F75F00AA4FEEF540F2E90C4
:1008390000041202F67F8A120EB2EF5470C4540FEC
:1008490075F00AA4FEEF540F2E9000031202F67FF2
:1008590088120EB2EF5470C4540F75F00AA4FEEF5B
:10086900540F2E9000051202F67F8C120EB2EF542F
:1008790070C4540F75F00AA4FEEF540F2E900006B1
:030889000202F672
:100F0E00438901758CF7E4F58AD28CD2A9D2AF222F
:100E78007B007A0079101207D985103C85113D85D1
:0E0E8800123E85143F851540851341851642A4
:010E96002239
:100B3400E4F510743C2510F8E6FF75F00A84FEEF26
:100B440075F00A84A6F0EEC454F0FF743C2510F846
:100B5400EF26F60510E510B407D9E4FD7F8E120EDA
:100B6400C77511FF75120E751353E4F510AB11AA76
:100B740012A9131202CBFF743C2510F8E6FD120EE5
:100B8400C774012513F513E43512F5120510E510A9
:0C0B9400C3940740D87D807F8E020EC7FE
:100EDB00E4FEC2B6EF1392B4EFC313FFD2B60EBE4D
:020EEB0008F00D
:010EED0022E2
:100EC700C2B500C2B600D2B500120EDBAF05120ED6
:040ED700DBC2B522A3
:100DFB00120F0E120E7812092C8F41120B347E003B
:100E0B007F0F7D007B007A00792112037B7E007FB0
:0C0E1B00247D007B007A00795002037BEC
:06092C00AB3FAD40AF42FD
:020932008B1028
:10093400EDC39403ED400524FEFE8003240AFEED7E
:10094400C3940340028003EF14FF8F11AF06AC077A
:10095400E41202167B667A66792678401201067BD9
:10096400CD7ACC794C78BE12001512024AEFFBE521
:10097400111313543F2511FFE433FEE51175F064A0
:1009840084FDC3EF9DF582EE9400F583AF117E00E4
:100994007C017D90120318EF2582FFEE3583CF2B67
:1009A400CF3400FE7C00EF2510FFEC3EFE7D0712E5
:0409B4000318AF0570
:0109B800221C
:100CB100E5456048E4F545300008E544603E6401DF
:100CC100603A120E78E4FF20002EEF75F003A424A1
:100CD10023F8E6653D7021EF75F003A42422F8E6C0
:100CE100B53E15E53C7011EF75F003A42421F8E63B
:0C0CF100600674462FF876010FBF05CB9B
:010CFD0022D4
:040E97007F0A7E0050
:100E9B00EF1FAA0670011E4A600B7D6EEDD3940006
:060EAB0040EE1D80F7D3AC
:010EB100221E
:100D8A00E53E75F00A84F532E53E75F00A8485F091
:100D9A0033753414E53D75F00A84F535E53D75F093
:100DAA000A8485F036753714E53C75F00A84F538FF
:0A0DBA00E53C75F00A8485F039224B
:100D4A00E54275F00A84F532E54275F00A84E5F069
:100D5A00240AF533E54075F00A84F534E54075F068
:100D6A000A84E5F0240AF535E53F75F00A84F5367C
:100D7A00E53F75F00A8485F03775381485413922C4
:100CFE00E54375F003A42421F8E62414F532E54308
:100D0E0004F533753414E54375F003A42422F8E694
:100D1E00FF75F00A84F535EF75F00A8485F03675A7
:100D2E003714E54375F003A42423F8E6FF75F00AA3
:0C0D3E0084F538EF75F00A8485F0392246
:100AC500E54F70087532147533148011E54F75F0D4
:100AD5000A84F532E54F75F00A8485F033E54F75E4
:100AE500F003A42450F8E6FF75F00A84F534EF7599
:100AF500F00A84E5F0240AF535E54F75F003A424E2
:100B050051F8E6FF75F00A84F536EF75F00A84E5CD
:100B1500F0240AF537E54F75F003A42452F8E6FFF3
:0F0B250075F00A84F538EF75F00A8485F03922EF
:10088C00209214120E972092031207073092FD1239
:10089C000E9720926980FB209326120E97209303CB
:1008AC0012060D2093097FC87E00120E9B50F41285
:1008BC000E972093497FC87E00120E9B404080F219
:1008CC00209726120E972097031204DB2097097F9E
:1008DC00C87E00120E9B50F4120E972097207FC8F2
:1008EC007E00120E9B401780F2209612120E97205B
:1008FC009603120BA03096FD120E973096FDD3E5A1
:10090C00446480F874046480985004E4F54422C371
:10091C00E5446480F874FF648098400375440322B6
:100E2700120DFB120CB1E54414600F14601114602D
:100E37001324037012120D8A800D120D4A800812B6
:0C0E47000CFE8003120AC512088C80D734
:10070700200024D200E5447002802CE544B40102A5
:100717008041E544B40204754E0322E54464036056
:10072700030207D8F54F22E5447010154EE54ED366
:10073700940040030207D8754E0222E544B401171E
:10074700E54EB40602154E154EE54ED3940240030E
:100757000207D8754E0622E544B4020D054EE54E54
:10076700C39404406CE4F54E22E5446403706220B0
:100777000107E54F705BE4F53AD201053AE53AD354
:10078700940A4008C201754F01153A22853A4FE590
:100797003A75F003A4244DF8E6FFE53A75F003A493
:1007A7002450F8A607E53A75F003A4244EF8E6FFAF
:1007B700E53A75F003A42451F8A607E53A75F00366
:1007C700A4244FF8E6FFE53A75F003A42452F8A6EF
:0207D7000722F7
:10060D00200003054422E544702D743C254EF80668
:10061D00E54EB4020BE53EC394184004E4F53E22CA
:10062D00E54E64016003020706E53DC3943C5003AB
:10063D00020706E4F53D22E5446401703D743C2556
:10064D004EF806E54EB4060BE542C394644004E44F
:10065D00F54222E54EB4040BE540C3940D400475FC
:10066D00400122E54E64036003020706E53FC39493
:10067D00205003020706753F0122E54464027068AD
:10068D00E54EB403040543800CE54375F003A42443
:10069D0021254EF806E54EB4030AE543C394054003
:1006AD0003E4F543E54EB40112E54375F003A424CC
:1006BD0022F8E6C394184003E4F622E54EB4021284
:1006CD00E54375F003A42423F8E6C3943C4003E40A
:1006DD00F622E54E7023E54375F003A42421F8E6D8
:1006ED00C394034014E4F622E544B4030C054FE52E
:0A06FD004FD3953A4003E4F54F2275
:1004DB00200003154422E5447034743C254EF8E6A5
:1004EB00D3940040021622E54EB4020BE53ED394A2
:1004FB00005004753E1722E54E6401600302060CA2
:10050B00E53DD39400400302060C753D3B22E544C8
:10051B0064017058743C254EF8E6FFD394014008F3
:10052B00E54E640660021622EFD394004007E54EB9
:10053B00B406021622E54EB4060BE542D3940050E6
:10054B000475426322E54EB4040BE540D39401508D
:10055B000475400C22E54E6403600302060CE53F74
:10056B00D39401400302060C753F1F22E54464023D
:10057B007076E54EB4030AE543D39400400315436C
:10058B0022E54375F003A42421254EF8E6D394000D
:10059B0040021622E54EB4030BE543D394005004FE
:1005AB0075430422E54EB40112E54375F003A42410
:1005BB0022F8E6D394005003761722E54EB40212CC
:1005CB00E54375F003A42423F8E6D3940050037697
:1005DB003B22E54E702BE54375F003A42421F8E68E
:1005EB00D39400501C760222E544B40314E54FD398
:1005FB0094004003154F22E54FD394005003853AE6
:02060B004F227C
:100BA000200025E4F544FF74462FF8E66010E4F6D3
:100BB000EF75F003A42421F8E6B40102E4F60FBFB8
:100BC00005E5E4F543D29522E5447004C200800CAB
:100BD000E544B4010AC20012092C8F41020B34E52E
:100BE00044B40203C20022E544B4030E300106758A
:0A0BF0004F01C20122C200E4F54FDC
:010BFA0022D8
:1003A700054DE54D7002054C2000030204BEE544EF
:1003B700703AC3E54D94B4E54C94005021E54EB432
:1003C7000209EF6053BF01030204AFE54EB4010B0E
:1003D700EF64036003BF04030204AF0204BEC3E576
:1003E7004D9468E54C940150510204BEE544640104
:1003F700704BC3E54D94B4E54C94005030E54EB4D2
:100407000609EF6003BF01030204AFE54EB4040B16
:10041700EF64026003BF03030204AFE54EB4030AAF
:10042700EF64046003BF0502807E0204BEC3E54D8E
:100437009468E54C94015002807D0204CAE5446447
:1004470002704EC3E54D94B4E54C94005034E54E2C
:10045700B40305BF01028050E54EB4010AEF6403FF
:100467006003BF04028041E54EB4020AEF640660F0
:1004770003BF07028032E54E7006EF7003F5802256
:100487008035C3E54D9468E54C940150028028807F
:1004970032E5446403703CC3E54D94B4E54C9400E5
:1004A700500AEF6003BF0104E4F58022C3E54D94D1
:1004B70068E54C9401500C74322FF8E6900E619366
:1004C700F5802274322FF8E6900E6193F580E4F5FB
:0404D7004CF54D2271
:100BFB00E4FF74462FF8E670040FBF05F5EF6405AC
:100C0B006048054BE54BC394645004C2958013E5D3
:100C1B004BC394C85007D295E4F5808005E4F54B9F
:100C2B000530E530D394144021E4F530FF74462FA2
:100C3B00F8E66010E4F6EF75F003A42421F8E6B4AF
:0A0C4B000102E4F60FBF05E5D295A3
:010C5500227C
:100A450030017C053BE53BC394044073E4F53BE58D
:100A55003A75F003A42452F806E53A75F003A42488
:100A650052F8E675F06484FFE53A75F003A4245165
:100A7500F8EF26F6E53A75F003A42452F8E675F08A
:100A85006484A6F0E53A75F003A42451F8E675F000
:100A95003C84FFE53A75F003A42450F8EF26F6E50B
:100AA5003A75F003A42451F8E675F03C84A6F0E508
:100AB5003A75F003A42450F8E675F03C84A6F022BC
:03000B00020C568E
:100C5600C0E0C0F0C083C082C0D075D008758CF7E4
:100C6600758A00758000E5741392A2E574C31313A8
:100C760092A3E5741313543F1392A4AF741203A7FF
:100C8600120BFB120A450574E574C39408401175EE
:100C960074000531E531940A400675450175310049
:0B0CA600D0D0D082D083D0F0D0E0325C
:10000E000202B6E86480F8E933E83360110460F068
:10001E00ED33EC337009E8FCE9FDEAFEEBFF220458
:10002E0060DED3EB9FEA9EE99DE8C2E78CF0C2F753
:10003E0095F0400CE8CCF8E9CDF9EACEFAEBCFFB1F
:10004E0012028185D0F05804700320D5B3E80470F5
:10005E00075002B2D50202C092D5EC0460F7E4CC90
:10006E00C0E0C398F8603B94186008400DD0E0FBE8
:10007E00020298E4FBFAC9FC8028E830E406E4C9E1
:10008E00FBE4CAFCE830E305E4C9CACBFCE854073C
:10009E006010F8C3E913F9EA13FAEB13FBEC13FC47
:1000AE00D8F130F52FC3E49CFCEF9BFFEE9AFEEDEA
:1000BE0099FDD0E0FBEF4E4D4C701222DB03020295
:1000CE00BDEC2CFCEF33FFEE33FEED33FDED30E7F0
:1000DE00EB020298EF2BFFEE3AFEED39FDD0E0FB7E
:1000EE0050130BBB00030202C0ED13FDEE13FEEF27
:0800FE0013FFEC13FC02029851
:10010600EC4D6011E8497017ED33EC3304600DE4F3
:10011600FCFFFEFD22E933E8330470F80202B61252
:10012600028158046009E4CC248150062850090253
:1001360002C02840030202BDC0E0EB4A7044B98009
:1001460006D0E0FB0202ACEF4E701CBD8008EBFF50
:10015600EAFEE9FD80EBE98DF0A4FEE5F00201EF91
:10016600E9CDF9EAFEEBFFEF89F0A4FCE5F0CE89D4
:10017600F0A42EFFE435F0CD89F0A42DFEE435F091
:100186008067EF4E7005BD80D780C3EF8BF0A4ACBF
:10019600F0EE8BF0A42CFCE435F0F8EF8AF0A42CFA
:1001A600E5F038FCE433CB8DF0A42CFCE5F03BF80D
:1001B600EE8AF0A42CFCE5F038F8E433CF89F0A4FD
:1001C6002CFCE5F038CF3400CE89F0A42FFFE5F003
:1001D6003EFEE433C98DF0A42EFEE5F039CD8AF05B
:1001E600A42FFFE5F03EFEE43DFD33D0E0FB5007D3
:1001F6000BBB000F0202C0EC2CFCEF33FFEE33FE0C
:06020600ED33FD02029839
:10020C0075F020800E75F010800575F0087D007E6D
:10021C00007F003392D530D50312036DEC334010C0
:10022C00EF33FFEE33FEED33FDEC33FCD5F0ED2276
:0E023C00E5F0247EA2D513CC92E7CDCEFF22B2
:10024A00EDD2E7CD33EC3392D524814006E4FFFEAC
:10025A00FDFC22FCE4CFCECDCC24E0501174FF800B
:10026A00EDC3CC13CCCD13CDCE13CECF13CF0470A8
:07027A00F030D5DE02036D38
:10028100E9D2E7C933E833F892D5EDD2E7CD33ECC3
:0702910033FC5002B2D5223C
:10029800EC30E7100FBF000C0EBE00080DBD0004C7
:1002A8000BEB6014A2D5EB13FCED92E7FD2274FF73
:1002B800FCFDFEFF22E480F8A2D574FF13FC7D80CC
:0302C800E480EFE0
:1009C500020E27E493A3F8E493A34003F68001F213
:1009D50008DFF48029E493A3F85407240CC8C33333
:1009E500C4540F4420C8834004F456800146F6DF02
:1009F500E4800B0102040810204080900DC4E47EC1
:100A0500019360BCA3FF543F30E509541FFEE493F6
:100A1500A360010ECF54C025E060A840B8E493A3BD
:100A2500FAE493A3F8E493A3C8C582C8CAC583CAE8
:100A3500F0A3C8C582C8CAC583CADFE9DEE780BEA0
:010DFA0000F8
:1002CB00BB010689828A83E0225002E722BBFE0231
:0902DB00E32289828A83E4932264
:1002E400BB010689828A83F0225002F722BBFE01F9
:0202F400F322F3
:1002F600F8BB010DE58229F582E5833AF583E8F03E
:10030600225006E92582C8F622BBFE05E92582C8E9
:02031600F222D1
:10031800BC000BBE0029EF8DF084FFADF022E4CCC9
:10032800F875F008EF2FFFEE33FEEC33FCEE9DEC92
:10033800984005FCEE9DFE0FD5F0E9E4CEFD22EDD8
:10034800F8F5F0EE8420D21CFEADF075F008EF2F22
:10035800FFED33FD4007985006D5F0F222C398FD13
:050368000FD5F0EA22B0
:0E036D00C3E49FFFE49EFEE49DFDE49CFC22A1
:10037B00EF4E6012EF60010EEDBB010B89828A8399
:10038B00F0A3DFFCDEFA2289F05007F709DFFCA9A6
:0C039B00F022BBFEFCF309DFFCA9F022FD
:00000001FF
