:03000000020A8F62
:0C0A8F00787FE4F6D8FD75813A020AD6A3
:100FB40080828486888A8C81838587898B8D3F068D
:100FC4005B4F666D7D077F6FBF86DBCFE6EDFD87E8
:050FD400FFEF40011FCA
:100EE500072A0800010C01060D013200C100013975
:100EF5000001310005340000000000C10101290096
:100F0500013A0042001300004100120041000F00A9
:0C0F1500410011004100CF00410010001D
:10101B00438901758CF7E4F58AD28CD2A9D2AF2221
:100E0B007511FF75120F7513BBE4F510AB11AA1218
:100E1B00A9131202CBFF120E62742A2510F8A60733
:100E2B00742A2510F8E6FFC4540FFE742A2510F817
:100E3B00EF540FF6742A2510F8E6FFEE75F00AA4AE
:100E4B002FF674012513F513E43512F5120510E591
:060E5B0010C3940740B62D
:010E6100226E
:100C8400E4F510742A2510F8E6FF75F00A84FEEFE7
:100C940075F00A84A6F0EEC454F0FF742A2510F807
:100CA400EF26F60510E510B407D9E4FD7F8E120F88
:100CB400F47511FF75120F7513B4E4F510AB11AA96
:100CC40012A9131202CBFF742A2510F8E6FD120FA5
:100CD400F474012513F513E43512F5120510E5102B
:0C0CE400C3940740D87D807F8E020FF47F
:10100800E4FEC2B6EF1392B4EFC313FFD2B60EBE1E
:0210180008F0DE
:01101A0022B3
:100FF400C2B500C2B600D2B500121008AF05121077
:0410040008C2B52247
:100E6200E4FDC2B50000C2B60000D2B50000121007
:100E720008E4FF30B403430580C2B6EDC313FD009E
:100E82000000D2B60FBF08EBC2B50000C2B5C2B6B1
:100E920000000000D2B60000C2B40000D2B40000CC
:020EA200AF059A
:010EA400222B
:100F5C0012101B120E0B120A028F2F120C847E0021
:100F6C007F0F7D007B017A0079001203477E007FA2
:0C0F7C00BA7D007B017A00791502034762
:060A0200AB2DAD2EAF305C
:020A08008B1051
:100A0A00EDC39403ED400524FEFE8003240AFEEDA7
:100A1A00C3940340028003EF14FF8F11AF06AC07A3
:100A2A00E41202167B667A66792678401201067B02
:100A3A00CD7ACC794C78BE12001512024AEFFBE54A
:100A4A00111313543F2511FFE433FEE51175F064C9
:100A5A0084FDC3EF9DF582EE9400F583AF117E000D
:100A6A007C017D901202E4EF2582FFEE3583CF2BC5
:100A7A00CF3400FE7C00EF2510FFEC3EFE7D07120E
:040A8A0002E4AF05CE
:010A8E002245
:100CF000E533605AE4F533300008E53260506401B2
:100D0000604C120E0BE4FF200040EF75F003A424AA
:100D100002F582E43400F583E0652B702DEF75F069
:100D200003A42401F582E43400F583E0B52C1BE52F
:100D30002A7017EF75F003A42400F582E43400F55F
:0E0D400083E0600674342FF876010FBF05B90A
:010D4E002282
:100F2200E52C75F00A84F521E52C75F00A8485F02C
:100F320022752314E52B75F00A84F524E52B75F050
:100F42000A8485F025752614E52A75F00A84F527AA
:0A0F5200E52A75F00A8485F02822D4
:100EA500E53075F00A84F521E53075F00A84E5F042
:100EB500240AF522E52E75F00A84F523E52E75F052
:100EC5000A84E5F0240AF524E52D75F00A84F52554
:100ED500E52D75F00A8485F026752714852F2822BF
:100D4F00E53175F003A42400F582E43400F583E067
:100D5F002414F521E53104F522752314E53175F0DE
:100D6F0003A42401F582E43400F583E0FF75F00A53
:100D7F0084F524EF75F00A8485F025752614E53186
:100D8F0075F003A42402F582E43400F583E0FF75C7
:0E0D9F00F00A84F527EF75F00A8485F028220B
:100B1B00E53A70087521147522148011E53A75F0C9
:100B2B000A84F521E53A75F00A8485F022E53A75D9
:100B3B00F003A42415F582E43400F583E0FF75F08F
:100B4B000A84F523EF75F00A84E5F0240AF524E511
:100B5B003A75F003A42416F582E43400F583E0FF24
:100B6B0075F00A84F525EF75F00A84E5F0240AF593
:100B7B0026E53A75F003A42417F582E43400F583D7
:100B8B00E0FF75F00A84F527EF75F00A8485F028ED
:010B9B002237
:040FD9007F0A7E000D
:100FDD00EF1FAA0670011E4A600B7D6EEDD39400C3
:060FED0040EE1D80F7D369
:010FF30022DB
:10096200209214120FD92092031207A63092FD1280
:100972000FD920926980FB209326120FD92093036E
:1009820012065F2093097FC87E00120FDD50F41219
:100992000FD92093497FC87E00120FDD404080F2BC
:1009A200209726120FD92097031203732097097FED
:1009B200C87E00120FDD50F4120FD92097207FC895
:1009C2007E00120FDD401780F2209612120FD920FE
:1009D2009603120C153096FD120FD93096FDD3E511
:1009E200326480F874046480985004E4F53222C3BF
:1009F200E5326480F874FF64809840037532032204
:100F8800120F5C120CF0E53214600F14601114603B
:100F98001324037012120F22800D120EA58008125E
:0C0FA8000D4F8003120B1B12096280D752
:1007A600200024D200E5327002802CE532B401022A
:1007B6008041E532B4020475390322E532640360F0
:1007C600030208A4F53A22E53270101539E539D34B
:1007D600940040030208A475390222E532B40117D9
:1007E600E539B4060215391539E539D394024003C3
:1007F6000208A475390622E532B402100539E53936
:10080600C3940450030208A4E4F53922E5326403D4
:1008160060030208A420010AE53A60030208A4E482
:10082600F529D2010529E529D3943C4008C2017572
:100836003A0115292285293AE52975F003A42412DF
:10084600F582E43400F583E0FFE52975F003A4247E
:1008560015F582E43400F583EFF0E52975F003A47D
:100866002413F582E43400F583E0FFE52975F003EF
:10087600A42416F582E43400F583EFF0E52975F03B
:1008860003A42414F582E43400F583E0FFE529751A
:0F089600F003A42417F582E43400F583EFF02279
:10065F00200003053222E532702D742A2539F80661
:10066F00E539B4020BE52CC394184004E4F52C22B1
:10067F00E539640160030207A5E52BC3943C5003E1
:10068F000207A5E4F52B22E5326401703D742A259B
:10069F0039F806E539B4060BE530C394644004E439
:1006AF00F53022E539B4040BE52EC3940D400475E3
:1006BF002E0122E539640360030207A5E52DC394DB
:1006CF002050030207A5752D0122E5326402600355
:1006DF00020794E539B403040531801DE53175F047
:1006EF0003A42400F582E43400F583E5822539F56F
:1006FF0082E43583F583E004F0E539B4030AE5318C
:10070F00C394054003E4F531E539B40124E53175AF
:10071F00F003A42401F582E43400F583E0C39418B8
:10072F00400FE53175F003A42401F582E434008015
:10073F004FE539B40224E53175F003A42402F582A4
:10074F00E43400F583E0C3943C400FE53175F003CA
:10075F00A42402F582E434008026E5397038E531AF
:10076F0075F003A42400F582E43400F583E0C3940C
:10077F00034023E53175F003A42400F582E434002F
:10078F00F583E4F022E532B4030C053AE53AD3954C
:07079F00294003E4F53A22B2
:10037300200003153222E5327034742A2539F8E659
:10038300D3940040021622E539B4020BE52CD39432
:10039300005004752C1722E539640160030205142B
:1003A300E52BD394004003020514752B3B22E53261
:1003B30064017058742A2539F8E6FFD39401400884
:1003C300E539640660021622EFD394004007E5394D
:1003D300B406021622E539B4060BE530D394005077
:1003E3000475306322E539B4040BE52ED394015030
:1003F30004752E0C22E53964036003020514E52D10
:10040300D394014003020514752D1F22E5326402C3
:1004130060030204FBE539B4030AE531D3940040D9
:1004230003153122E53175F003A42400F582E43489
:1004330000F583E5822539F582E43583F583E0D33E
:100443009400401EE53175F003A42400F582E434E2
:1004530000F583E5822539F582E43583F583E014DD
:10046300F022E539B4030BE531D394005004753120
:100473000422E539B40128E53175F003A42401F51C
:1004830082E43400F583E0D394005013E53175F032
:1004930003A42401F582E43400F5837417F022E504
:1004A30039B40228E53175F003A42402F582E4345B
:1004B30000F583E0D394005013E53175F003A424D1
:1004C30002F582E43400F583743BF022E539704190
:1004D300E53175F003A42400F582E43400F583E0EC
:1004E300D39400502CE53175F003A42400F582E485
:1004F3003400F5837402F022E532B40314E53AD3F1
:1005030094004003153A22E53AD394005003852919
:020513003A228A
:100C1500200039E4F532FF74342FF8E66024E4F659
:100C2500EF75F003A42400F582E43400F583E0B405
:100C35000110EF75F003A42400F582E43400F58378
:100C4500E4F00FBF05D1E4F531D29522E532700409
:100C5500C200800CE532B4010AC200120A028F2FCD
:100C6500020C84E532B40203C20022E532B4030E5D
:0E0C7500300106753A01C20122C200E4F53AD0
:010C8300224E
:10051500900014E004F07006900013E004F0200051
:1005250003020640E532703D900013E0FCA3E0FDB8
:10053500C394B4EC94005021E539B40209EF605638
:10054500BF0103020633E539B4010BEF6403600311
:10055500BF0403020633020640C3ED9468EC940120
:100565005056020640E53264017050900013E0FCDD
:10057500A3E0FDC394B4EC94005031E539B4060909
:10058500EF6003BF0103020633E539B4040BEF64E2
:10059500026003BF0303020633E539B4030BEF64BE
:1005A500046003BF0503020633020640C3ED9468E9
:1005B500EC9401500302064002064CE532640270D9
:1005C50051900013E0FCA3E0FDC394B4EC940050FB
:1005D50034E539B40305BF01028053E539B4010A96
:1005E500EF64036003BF04028044E539B4020AEFF7
:1005F50064066003BF07028035E5397006EF7003B6
:10060500F580228036C3ED9468EC94015002802B6E
:100615008035E53264037041900013E0FCA3E0FDF2
:10062500C394B4EC9400500AEF6003BF0104E4F5F1
:100635008022C3ED9468EC9401500C74212FF8E6E8
:10064500900FC293F5802274212FF8E6900FC29384
:0A065500F580E4900013F0A3F022FA
:100B9C00E4FF74342FF8E670040FBF05F5EF64051D
:100BAC006066900012E004F0E0FEC394645004C24E
:100BBC00958018EEC394C85007D295E4F580800B4D
:100BCC00E4900012F090000FE004F090000FE0D3DE
:100BDC0094144034E4F0FF74342FF8E66024E4F607
:100BEC00EF75F003A42400F582E43400F583E0B43F
:100BFC000110EF75F003A42400F582E43400F583B2
:080C0C00E4F00FBF05D1D29501
:010C140022BD
:1008A500200103020961900011E004F0E0C3940403
:1008B5005003020961E4F0E52975F003A42417F556
:1008C50082E43400F583E004F0E52975F003A424FF
:1008D50017F582E43400F583E075F06484FFE529BB
:1008E50075F003A42416F582E43400F583E02FF0B7
:1008F500E52975F003A42417F582E43400F583E0B7
:1009050075F06484E5F0F0E52975F003A42416F587
:1009150082E43400F583E075F03C84FFE52975F049
:1009250003A42415F582E43400F583E02FF0E529CE
:1009350075F003A42416F582E43400F583E075F020
:100945003C84E5F0F0E52975F003A42415F582E46F
:0D0955003400F583E075F03C84E5F0F022FD
:03000B00020DAD36
:100DAD00C0E0C0F0C083C082C0D075D008758CF78C
:100DBD00758A007580009000CFE0FF1392A2EFC3FB
:100DCD00131392A3E01313543F1392A4120515129B
:100DDD000B9C1208A59000CFE004F0E0C3940840EE
:100DED0012E4F0900010E004F0E0940A4005753331
:0E0DFD0001E4F0D0D0D082D083D0F0D0E0322C
:10000E000202B6E86480F8E933E83360110460F068
:10001E00ED33EC337009E8FCE9FDEAFEEBFF220458
:10002E0060DED3EB9FEA9EE99DE8C2E78CF0C2F753
:10003E0095F0400CE8CCF8E9CDF9EACEFAEBCFFB1F
:10004E0012028185D0F05804700320D5B3E80470F5
:10005E00075002B2D50202C092D5EC0460F7E4CC90
:10006E00C0E0C398F8603B94186008400DD0E0FBE8
:10007E00020298E4FBFAC9FC8028E830E406E4C9E1
:10008E00FBE4CAFCE830E305E4C9CACBFCE854073C
:10009E006010F8C3E913F9EA13FAEB13FBEC13FC47
:1000AE00D8F130F52FC3E49CFCEF9BFFEE9AFEEDEA
:1000BE0099FDD0E0FBEF4E4D4C701222DB03020295
:1000CE00BDEC2CFCEF33FFEE33FEED33FDED30E7F0
:1000DE00EB020298EF2BFFEE3AFEED39FDD0E0FB7E
:1000EE0050130BBB00030202C0ED13FDEE13FEEF27
:0800FE0013FFEC13FC02029851
:10010600EC4D6011E8497017ED33EC3304600DE4F3
:10011600FCFFFEFD22E933E8330470F80202B61252
:10012600028158046009E4CC248150062850090253
:1001360002C02840030202BDC0E0EB4A7044B98009
:1001460006D0E0FB0202ACEF4E701CBD8008EBFF50
:10015600EAFEE9FD80EBE98DF0A4FEE5F00201EF91
:10016600E9CDF9EAFEEBFFEF89F0A4FCE5F0CE89D4
:10017600F0A42EFFE435F0CD89F0A42DFEE435F091
:100186008067EF4E7005BD80D780C3EF8BF0A4ACBF
:10019600F0EE8BF0A42CFCE435F0F8EF8AF0A42CFA
:1001A600E5F038FCE433CB8DF0A42CFCE5F03BF80D
:1001B600EE8AF0A42CFCE5F038F8E433CF89F0A4FD
:1001C6002CFCE5F038CF3400CE89F0A42FFFE5F003
:1001D6003EFEE433C98DF0A42EFEE5F039CD8AF05B
:1001E600A42FFFE5F03EFEE43DFD33D0E0FB5007D3
:1001F6000BBB000F0202C0EC2CFCEF33FFEE33FE0C
:06020600ED33FD02029839
:10020C0075F020800E75F010800575F0087D007E6D
:10021C00007F003392D530D503120339EC334010F4
:10022C00EF33FFEE33FEED33FDEC33FCD5F0ED2276
:0E023C00E5F0247EA2D513CC92E7CDCEFF22B2
:10024A00EDD2E7CD33EC3392D524814006E4FFFEAC
:10025A00FDFC22FCE4CFCECDCC24E0501174FF800B
:10026A00EDC3CC13CCCD13CDCE13CECF13CF0470A8
:07027A00F030D5DE0203396C
:10028100E9D2E7C933E833F892D5EDD2E7CD33ECC3
:0702910033FC5002B2D5223C
:10029800EC30E7100FBF000C0EBE00080DBD0004C7
:1002A8000BEB6014A2D5EB13FCED92E7FD2274FF73
:1002B800FCFDFEFF22E480F8A2D574FF13FC7D80CC
:0302C800E480EFE0
:100A9B00020F88E493A3F8E493A34003F68001F2DA
:100AAB0008DFF48029E493A3F85407240CC8C3335C
:100ABB00C4540F4420C8834004F456800146F6DF2B
:100ACB00E4800B0102040810204080900EE5E47EC8
:100ADB00019360BCA3FF543F30E509541FFEE49320
:100AEB00A360010ECF54C025E060A840B8E493A3E7
:100AFB00FAE493A3F8E493A3C8C582C8CAC583CA12
:100B0B00F0A3C8C582C8CAC583CADFE9DEE780BEC9
:010F210000CF
:1002CB00BB010689828A83E0225002E722BBFE0231
:0902DB00E32289828A83E4932264
:1002E400BC000BBE0029EF8DF084FFADF022E4CCFE
:1002F400F875F008EF2FFFEE33FEEC33FCEE9DECC7
:10030400984005FCEE9DFE0FD5F0E9E4CEFD22ED0C
:10031400F8F5F0EE8420D21CFEADF075F008EF2F56
:10032400FFED33FD4007985006D5F0F222C398FD47
:050334000FD5F0EA22E4
:0E033900C3E49FFFE49EFEE49DFDE49CFC22D5
:10034700EF4E6012EF60010EEDBB010B89828A83CD
:10035700F0A3DFFCDEFA2289F05007F709DFFCA9DA
:0C036700F022BBFEFCF309DFFCA9F02231
:00000001FF
